:020000041000EA
:1000000000B5324B212058609868022188439860DF
:10001000D860186158612E4B002199600221596106
:100020000121F02299502B49196001219960352056
:1000300000F044F80222904214D00621196600F024
:1000400034F8196E01211966002018661A6600F04E
:100050002CF8196E196E196E052000F02FF8012189
:100060000842F9D1002199601B49196000215960AB
:100070001A491B48016001219960EB211966A021F2
:10008000196600F012F800219960164914480160C1
:100090000121996001BC002800D000471248134993
:1000A000086003C880F30888084703B5996A0420EC
:1000B0000142FBD001200142F8D103BD02B5186610
:1000C0001866FFF7F2FF186E186E02BD00000240BE
:1000D000000000180000070000035F00212200005C
:1000E000F4000018222000A00001001008ED00E03C
:1000F00000000000000000000000000074B24E7A12
:1001000000200420F7010010C3010010C5010010F9
:10011000C1010010C1010010C1010010C101001097
:10012000C1010010C1010010C1010010C701001081
:10013000C1010010C1010010C9010010CB01001065
:10014000CD010010CD010010CD010010CD01001037
:10015000CD010010CD010010CD010010CD01001027
:10016000CD010010CD010010CD010010CD01001017
:10017000CD010010CD010010CD010010CD01001007
:10018000CD010010CD010010CD010010CD010010F7
:10019000CD010010CD010010CD010010CD010010E7
:1001A000CD010010CD010010CD010010CD010010D7
:1001B000CD010010CD010010CD010010CD010010C7
:1001C00000BE00BE00BE00BE00BE00BE00F051F882
:1001D000103800BEF2EB8871E0020010000300103E
:1001E0003402001090A31AE700202449086006C8D2
:1001F00081F30888104722480068002835D10DA4F3
:100200000ECC002902D000F012F8F9E71D491E4A71
:10021000002000E001C19142FCD11C4988471C49E3
:1002200088471C49884700BEFDE701C901C29A42C0
:10023000FBD3704700030010C0000020B82300204B
:10024000F8250010C0230020A8270020E029001076
:100250000000042000000420E02900100010042009
:10026000001004200000000070470B4800F018F850
:100270000047EFF30580C0B27047000008ED00E0D2
:10028000000000D0A82700207C3C0020C5120020E0
:10029000ED010020B51300205756000000000000BB
:1002A00001B40248844601BC604700BF0119002028
:1002B00006005250ABB36053802600200600525017
:1002C000861C030290260020060052505422A29D54
:1002D000A826002005005250DE65F468E0290010D1
:1002E000D4020010C8020010BC020010B426002086
:1002F000B0020010C0260020CC260020D826002006
:10030000F8B5C0460448054B10B5834203D0044BF2
:10031000002B00D0984710BDA8270020A827002058
:100320000000000006480749091A8B10C90FC918B8
:1003300010B5491003D0044B002B00D0984710BDD6
:10034000A8270020A82700200000000010B5074CB7
:100350002378002B09D1FFF7D5FF054B002B02D0E6
:10036000044800E000BF0123237010BDA82800202E
:1003700000000000B8230020054B10B5002B03D06F
:100380000449054800E000BFFFF7CCFF10BDC046A0
:1003900000000000AC280020B82300200120F8B5A0
:1003A0000021404200F010FAD023802480211B0657
:1003B0005A68E40401200126134D0905224205D0A4
:1003C000802498625A68E4042242F9D15A68224291
:1003D000F6D10A420DD012035862120DAA5C0240F7
:1003E0005A617240D2B29A615A682242E8D10A42F6
:1003F000F1D198625A680A42FCD0170352083F0DA7
:100400000240EA55E2E7C046602A002010B5040029
:1004100000F058F90123D022A34012069362002174
:100420000022200000F036F910BDC046F0B5C646E7
:1004300000B584B01A4803AB02AA01A900F074F811
:10044000002803D11649174801F0D6F8039A0299FB
:10045000019800F02DF83823D02698460127124C39
:100460003606A04420CC280000F02CF93B00AB401D
:10047000002200212800B36200F00CF94445F1D1BC
:100480000120FFF7C3FF0020FFF7C0FF1A20FFF78E
:10049000BDFF1B20FFF7BAFF044802F045F8FEE756
:1004A000B01E0400B4250020E82500205D010020D6
:1004B000F0B583B005000E00140000F045F90028E7
:1004C00001D003B0F0BD154F01223B000121009780
:1004D000053001F0AFF833002A00009401211048E4
:1004E00001F096FA21002800714301F057FB040047
:1004F0000C4B002200930221042001F09BF8230002
:10050000002201210094052001F094F83B00022212
:1005100000210097062001F08DF8D2E7006CDC0284
:1005200000800240001BB700F0B5DE4657464E463D
:100530004546E0B5070083B004209B460091019238
:1005400001F060FAFA21890001F028FB322382468B
:10055000FF33994686005644B6014C4B4C4AF3187B
:10056000072493420BD901235B429C465346E14446
:10057000F61A4B46002BF0D100205AE0012421004E
:100580003000614301F00AFB874259D0631E984650
:10059000012CE8D01D0065433000290001F0FEFA6F
:1005A000874251D0A31E9846022CE7D02D1B29006C
:1005B000300001F0F3FA874249D0E31E9846032C3D
:1005C0004BD02D1B2900300001F0E8FA874246D0BD
:1005D000231F9846042C48D02D1B2900300001F021
:1005E000DDFA874243D0631F9846052C45D02D1B6A
:1005F0002900300001F0D2FA874240D0062C42D0C8
:100600003000E91F01F0CAFA06248742B7D1002959
:10061000B5D101230724984673019B1B9B009E19AB
:10062000009BF6001E60019B42461C605B46012059
:100630001A6003B03CBC90469946A246AB46F0BD5A
:100640000029A3D1A046E7E70029ABD1E4E70029C0
:10065000E2D0E31E9846032CB3D102248FE7002991
:10066000DAD0231F9846042CB6D1032487E700294B
:10067000D2D0631F9846052CB9D104247FE7002906
:10068000CAD0062CBCD1052479E7C046508EF4FFB1
:1006900050F80C000A4B80009C460423604400295B
:1006A00001D00C230821002A00D10B00026853401E
:1006B0000C221A4080235B01184302607047C04639
:1006C00004C001400123D02283401206936293614B
:1006D000094A83009446402263441968C0004A4096
:1006E000C02111408022520113431960034B9C46E4
:1006F000052360444360704704C00140004001404E
:10070000F8B5EFF3108772B60E4E3368002BFCD0AD
:10071000BFF35F8FCB08C4180725A446C45C012330
:100720000D40AB4018002040234208D162462343CD
:100730001370BFF35F8F306087F31088F8BD10002F
:1007400000F05AFF2C0100D0024B18688007C00F40
:100750007047C04600C006400021044B044ABFF366
:100760005F8F02C39342FAD17047C046000100D0A8
:10077000800100D0044A1078431CDBB2172B00D94B
:10078000102313707047C046E826002001238340E1
:10079000002904D0034A1360034A13607047034AD8
:1007A0001360FBE780E200E000E100E080E100E0B0
:1007B00001228240034B1B681340581E8341D8B26C
:1007C0007047C04600E100E0002904D0034B1860E8
:1007D000034B18607047034B1860FBE780E200E0B2
:1007E00000E100E080E100E0024B10309B688000F7
:1007F000C058704700ED00E070B50D00EFF31086B3
:1008000072B60F4A1368002BFCD0BFF35F8F0D4BFD
:1008100010309B6884001B590B4A934203D09D42C1
:1008200001D000F001FF074B9B681D51BFF35F8FA4
:10083000BFF35F8F0022024B1A6086F3108870BDF1
:10084000240100D000ED00E0CD010010F0B5DE463F
:1008500057464E464546E0B50C0083B0EFF3108A8C
:1008600072B65A4A1368002BFCD0BFF35F8F102278
:10087000914681444A46564B96009B689D59554B7C
:1008800098469D4205D0A54216D0534FEB1B2F2B07
:1008900014D94F4B9B689D51BFF35F8FBFF35F8FA0
:1008A00000224A4B1A608AF3108803B03CBC904681
:1008B0009946A246AB46F0BD1D00EAE701238340FE
:1008C0009B465A46454B1B681A4000925A46444B79
:1008D0001A60BFF35F8F01F087FE0190002803D0FC
:1008E000814501D000F0A0FE01232A009A439368BD
:1008F0009C4208D160E04B005B189B00FB18996894
:10090000A14211D01A00062151560029F3DA009BAA
:10091000002B05D05A46334B1A60304B1A60B8E7AB
:100920005A462F4B1A60B4E706215956002922DB9C
:100930004A00501880003C188046A0689860E07912
:10094000D871062020569871A0797F2824D8A488D1
:10095000F81A6405241544440019E0240005400DEC
:1009600024022043988052181F4B9200BF181A7817
:100970001970BA71CBE70199002910D1FF3191713B
:100980001A49918018490A789A71194ADB1B5B4110
:100990005A43120D0A70BAE7BD200002E2E7154A79
:1009A0001549D21A083A5002400D01439980134963
:1009B00052080A43DA80AAE706215156130000299B
:1009C000B6DA019A002AEAD14546DBE7240100D0D5
:1009D00000ED00E0CD010010EC26002000E100E079
:1009E00080E100E080E200E07A3A002000BDFFFFF5
:1009F000AAAA00002627002000F0FFFF00F8FFFF52
:100A0000F8B501250400054301F0EEFD0300EFF306
:100A1000108672B621490A68002AFCD0BFF35F8FA6
:100A20001F4A20001F49801A40414143090D1E48BA
:100A30009B00876849B2FF58AF421CD00623D356AB
:100A40008B421CD01223D3568B4222D01E23D35666
:100A50008B4220D02A23D35603208B4210D0134B35
:100A60001A781970A271BFF35F8F00220B4B1A60C6
:100A700086F31088F8BD82680D48D050EFE700205B
:100A800043001B189B00D218FF239371094B9380DE
:100A9000E5E70120F4E70220F2E7C046240100D098
:100AA000EC260020AAAA000000ED00E07A3A00201F
:100AB000CD01001000BDFFFF054B064A1360064A3A
:100AC000136053609360D360136153619361704707
:100AD0008080808000E400E004E400E0024B9C465B
:100AE00061448900016070474000003483680B480E
:100AF00010B5844661446244090112019A185918DC
:100B000054684B6801209C4201D802D00020C0B23A
:100B100010BD12680B689A42F9D8F7E7FFFFFF0F84
:100B2000F8B5574645464E46DE46E0B599460CAB0D
:100B300019780DAB1B78050090469A460768002986
:100B400012D1BE7B002E45D074003B68A419033C33
:100B50001B195A783100BA73002A00D1FA730022A7
:100B60009A705A701A7003E00E004C006418033C2F
:100B70002C4B00229C46AB6861449C4643460901CD
:100B800061440B604B464B600A9B8B600B9BCB60B8
:100B90003B681B199A705A701A707B7B9B46002B1E
:100BA0002CD032005946B8687B6898473A680028CC
:100BB00017D05B4658465B005B441419033BA0709A
:100BC000D118D35C002B00D063705B460E707B7332
:100BD000B34514D030003CBC90469946A246AB4683
:100BE000F8BD5B465B005B44033BD3189E70111954
:100BF000125D002A00D05A705B460B707E7342462D
:100C00004B46287D00F0DEF9041E06D05346002B2B
:100C100003D13100286800F01BFC0E9B002BD9D0BB
:100C20001C70D7E7FFFFFF0FF0B5DE464E46574674
:100C300045460023E0B58DB00A936B4B8200D35834
:100C40000B90994600239B464B46079300F06AF9A8
:100C5000079C06000F006268EFF3108572B61368F8
:100C6000002BFCD022000794BFF35F8F2468637BC6
:100C70009946002B67D092685C4B90464B441B0111
:100C8000984443461A685B6810001900801BB941FC
:100C900000295FDD0B9800F095F9002300269846A7
:100CA00000279A46079C6368BFF35F8F5A461A6015
:100CB00085F310885346002B08D10028C6D10DB00B
:100CC0003CBC90469946A246AB46F0BD0A9B4146C5
:100CD00018024B461843D047089009916268EFF319
:100CE000108572B61368002BFCD00794BFF35F8F9A
:100CF0000899099A002A48DB114303D0079B1B6916
:100D0000002B5DD1079B1B68DA7B002A07D05100BE
:100D10008A1819688C4649466244033A51704A461B
:100D2000DA734B46079A013BD168CA5C0132CA5458
:100D30005B46079A13615368BFF35F8F5A461A6088
:100D400085F3108882E700230026984600279A46FC
:100D50000020A7E7002901D100289BD10021200015
:100D600000F0D8FA43461E685F689B68079A9A4667
:100D70004346DB689846D3684B44013B1B780A9393
:100D80001B020343136100208CE72369002BB9D0B9
:100D900033003C005B1A94411A002300A74219D883
:100DA0009F421BD05946049101210391494602916B
:100DB00041460191514607980091FFF7B1FEB7E710
:100DC00000F0B0F8089A099B06000F0092197B41C9
:100DD0009942E5D901225242D317E3E79642E1D97D
:100DE00001225242D317DDE7482A0020FFFFFF0F00
:100DF00010B5124C6368002B04D00A211048FFF78D
:100E00006DFE10BD23000F4A1021206800F0A0F9EC
:100E1000032000F07BF8032000F046F903200A4984
:100E200000F08AF8FFF7A6FC084B9C4603236044B9
:100E30002375074B80006060DC60DEE7342700200C
:100E4000643A0020AD080020E90900204000003489
:100E5000482A0020F0B5D6464F464646C0B5EFF3C7
:100E600005833F22134018001038EFF3108C72B640
:100E7000204D2A68002AFCD0BFF35F8F01221100A9
:100E800081401D4C884661631C4917000E788A46D4
:100E90003100C1400F400A4215D019498200646AEE
:100EA00051588C4219D3174BD25843469E43534650
:100EB0001E70BFF35F8F00232B608CF31088002A15
:100EC00006D0904704E0BFF35F8F2F608CF310884B
:100ED0001CBC90469946A246F0BD0B4A9B0090462A
:100EE00043441A681A60BFF35F8F00232B608CF3B2
:100EF0001088EDE7280100D0004005407B3A002033
:100F0000683A0020C4280020D03F054010B50100F9
:100F1000024A0348FFF7F4FB10BDC046202600201C
:100F2000793A0020034B596A0A00986A596A8A4242
:100F3000FAD170470040054070B504000D00EFF392
:100F4000108672B61A4A1368002BFCD0BFF35F8F6D
:100F5000002D1BD02000FFF747FC164981420AD024
:100F60002000FFF749FC01212000FFF70FFC0123BF
:100F7000A340114A1360114BA400E550BFF35F8FEB
:100F800000220B4B1A6086F3108870BD0B4BA20039
:100F9000D5500122A2400A4920000B7893430B70E0
:100FA0000449FFF753FC00212000FFF7EFFBE5E7C2
:100FB000280100D0150C002038600540C42800200E
:100FC0007B3A0020F0B54F46D6464646C0B50700EE
:100FD000304C616A0D00A66A616AA942FAD18B425F
:100FE00008D805D001201CBC90469946A246F0BD09
:100FF000B242F7D9EFF3108972B627480168002989
:10100000FCD0BFF35F8F01252449BD408C46097891
:10101000204C0E002E438846F1B28A466146504667
:101020000870391D1E48890065630A51B9000B50CC
:10103000216A0020294219D0616A0800A66A616A03
:101040008142FAD18B4219D801D1B24216D8C24599
:101050001DD0104B1F201D625D6301230740BB4064
:10106000104A1E381360634642461A70BFF35F8F02
:101070000022094B1A6089F31088B4E70020BFF3FF
:101080005F8F0022044B1A6089F31088ABE70120C0
:10109000ECE7C04600400540280100D07B3A002024
:1010A000683A002080E200E010B5EFF3108472B6D9
:1010B0000A490B68002BFCD0BFF35F8F01238340EC
:1010C000074A0848136202789A430270BFF35F8FA1
:1010D00000230B6084F3108810BDC046280100D0A7
:1010E000004005407B3A002070B505000E0014005A
:1010F000002924D0002A24D080686B68984729688A
:1011000000280ED063001B197200033B9219CB1804
:10111000033A9E7088188A5C002A14D1047030004B
:101120000EE073009B196200033B1219CB18033ABF
:101130009C7088188A5C002A00D05A7006702000C3
:1011400070BD0800FCE75A7004703000F8E7C04634
:1011500030B583600023CCB2437301330473426023
:101160008373C4730D000068012C06D9421C01333F
:10117000DBB2137003329C42F9D1FF2129404B00AE
:101180005918002340180338437030BDF8B5CE46D7
:10119000474606000C0080B5002907D04D000368C3
:1011A0006D18033D5A195778002F04D120000CBC4C
:1011B00090469946F8BD7900C919033988464344D9
:1011C0005978894600215970517073683A0021009E
:1011D000806898473368002814D042469A18947063
:1011E00059195B5D002B00D053700F7027004946E2
:1011F0003000FFF7CBFF390002003000FFF774FF2B
:101200000400D3E7424641465D19AF709A185B5C13
:10121000002B00D06B701470E9E7C046F0B557465C
:101220004546DE464E46E0B50D006B0001685B1991
:10123000DF1E0400C85D83B00192CA1900284CD09B
:1012400043001B18033BCB185E78B446002E16D122
:10125000019E002E3ED0E67B002E04D073009B1929
:10126000CB18033B5D70E57300282FD1002353702A
:1012700003B03CBC90469946A246AB46F0BD720016
:101280006244033A89184A78904600224A7091468F
:101290005A70010032002000FFF726FF43468246C5
:1012A000002B07D05B0021684344033BCB185A78DE
:1012B000002A16D1424651462000FFF715FF21684B
:1012C000019BCA19002BC6D10028CFD043001B18A0
:1012D000033BCB1800219970C8E7019B002BBAD1C2
:1012E000C4E75000801803380918487883464846F8
:1012F0004870587041462000FFF7F6FE5946804678
:101300002000FFF743FF414602002000FFF7ECFEFC
:101310008046CFE7F0B54E464546DE465746E0B537
:10132000467B040075000068AD19033D83B0019150
:10133000415D421900294ED04B005B18033BC31896
:101340005F78BC46002F18D1019D002D40D0E57B71
:10135000002D04D06B005B19C318033B5E70E6736D
:10136000002931D1002330005370617303B03CBCBD
:1013700090469946A246AB46F0BD7A006244033AD5
:101380008018427893460022427091465A7020009D
:101390003A00FFF7A9FE5B468046002B07D05B00B2
:1013A00021685B44033BCB185A78002A17D15A4670
:1013B00041462000FFF798FE019B0100206842197A
:1013C000002BC4D10029CDD04B005B18033BC318C0
:1013D00000209870C6E7019B002BB8D1C2E75000EF
:1013E0008018033809184878824648464870587073
:1013F00059462000FFF778FE53468346002B07D05E
:101400005B0021685344033BCB185A78002A06D16D
:10141000594652462000FFF767FE8346C7E7500053
:1014200080180338091848464F784870587051465C
:101430002000FFF759FE390081462000FFF7A6FE85
:10144000494602002000FFF74FFE8246E0E7C04613
:1014500070B5040000292CD0437B8B422ED0056848
:1014600048004018033828188278002A21D05300F9
:101470009B18033BEA5CEE188A4202D11BE0002A6B
:1014800008D053009B18033BEB185A788A42F6D1D8
:1014900042785A7000230122837043702000FFF7C6
:1014A000BDFE617B02002000FFF71EFE607301207D
:1014B00000E0002070BD43783370EBE70122190093
:1014C000FFF7ACFE60730120F4E7C04610B50400DE
:1014D000FFF750F901002000FFF700FBFF23237105
:1014E000BFF35F8F10BDC04610B50400FFF742F98F
:1014F00001002000FFF7F2FAFF23A380BFF35F8F04
:1015000010BDC0462C4B2D4A70B51A602C4A2D4B8D
:101510002D491A6010008B689843FBD12B4C2C4B43
:101520009C4209D2013B1D1BAD080135AD002D19B0
:1015300008CC9847AC42FBD100F006F9254A214B74
:101540001A60214A9368DB018033FBD14022224B91
:10155000224C234D9A675A671A67DA66AC4208D262
:1015600023682000002B21D00834FFF7BDFFAC42D8
:10157000F6D31C4C1C4DA168C022280000F01AFEB6
:10158000A560FFF7E9F8FFF797FAFFF731FC174C72
:10159000174B9C4209D2013B1D1BAD080135AD0024
:1015A0002D1908CC9847A542FBD170BD0834FFF730
:1015B0008DFFAC42D4D3DCE700E00040BFCDFBFEA2
:1015C000FE7F3C0000F0004000C00040902700205B
:1015D000A0270020FFFFFF0100F00140802700202E
:1015E0009027002000ED00E000000020A027002050
:1015F000A827002000BEFDE70FB400B5084883B05F
:1016000000F002FF049B002B07D005A918000191F0
:1016100000F076FA034800F0F7FE00BEFDE7C04692
:10162000442600205426002010B50148FFF7E4FFAF
:1016300058260020F0B54546DE4657464E46E0B5F2
:1016400083B001920C9A050088469A4200D974E052
:101650001A0E93461E023000002359460C9A00F0E1
:10166000DFFA374B6C009C466419A400644463683D
:101670000700834200D260602B1FDBB29946012B2A
:1016800035D9C02380229B01234312011A602D4BC0
:10169000AD0059599A46002905D0586900F07EFAE4
:1016A00001300138FDD1019A236852015340E022F4
:1016B0001A4080235B0123431A604A46012A2FD92E
:1016C000802380229B01234312011A6030000023F3
:1016D0003A005946676000F0A3FA5346585101207A
:1016E00003B03CBC90469946A246AB46F0BD43468B
:1016F000012BC6D1C02303229B0123431A60023A67
:10170000A3681A42FCD0019A236852015A40E02390
:101710001A4080235B0123431A600A4AAD009246B7
:1017200042462168514003220A401A600122434682
:101730009A40A3681A42FCD0C2E70020D0E7C04616
:1017400000800040D429002030B50C2083B000F088
:10175000B3F9FEF7F9FF00280ED0944B944A1A60B3
:101760005A609A60DA601A615A619A61DA611A62A3
:10177000904A5A6203B030BD8F4CA06700F0A4F9C4
:1017800001228E4B1A60636C012BFCD103228C4B1F
:101790001A60894A936B012BFCD101330121894ADC
:1017A00089480093043300F033F90523874A0093F6
:1017B0000121874800F02CF9864B5A68FF2A02D88D
:1017C000802252005A608022784C7D4B21691201A0
:1017D000804D1A60002905D0606900F0DFF9013002
:1017E0000138FDD1E0217B4B02201A681140802294
:1017F00052012A43116019684840032101401160D9
:1018000004219A681142FCD08022802192012A434F
:1018100009011160802252005A606F4B23616F4BA7
:101820005968FF2900D85A6003226C48634B012194
:101830001A60020093681942FCD0E02513681D402D
:1018400080235B0103431D6012684A40032111405D
:1018500019600221614A93681942FCD080238021DB
:101860009B0103430901196080215D4B49005160D0
:1018700063615C4B5A68FF2A00D8596080225A4B3A
:10188000E1691201574D1A60002905D0606900F026
:1018900085F901300138FDD1E02252490B681A4028
:1018A00080235B012B431A60802380229B012B4302
:1018B00012011A6080223E4B52004A60E3614B4B9A
:1018C0005968FF2900D85A608022494B216A1201C9
:1018D000464D1A60002905D0606900F05FF90130BB
:1018E0000138FDD1E02241490B681A4080235B0199
:1018F0002B431A60802380229B012B4312011A6024
:10190000802380225B004B60294BD2022362394B3B
:101910005968914200D25A608022374B616A1201A5
:10192000344D1A60002905D0606900F037F90130A4
:101930000138FDD1E0222F490B681A4080235B015A
:101940002B431A60802380229B012B4312011A60D3
:101950008023DB024B60174B6362284B5A68FF2AD7
:1019600002D8802252005A608022254BA1691201C0
:10197000224D1A60002905D0606900F00FF901308E
:101980000138FDD1E0221D490B681A4080235B011C
:101990002B431A60802380229B012B4312011A6083
:1019A00080235B004B600E4BA361E3E6D42900204B
:1019B000006CDC021BB70000008000403CB000401F
:1019C00030B00040002F685900800240008C8647EC
:1019D00000C0024030800040001BB7003C80004047
:1019E000405973075480004054B00040608000406C
:1019F00060B000406C8000406CB000404880004007
:101A000048B00040014B8000C0587047D4290020E6
:101A1000F8B504000C2017001D000E0000F0BEF801
:101A20004101091A8B01591AC900091889013800A6
:101A300000F0B4F8069A2B04120313432268002A1C
:101A400021DB194AA21851424A41802149018C46A2
:101A500052420A40154962440A6015490A60154914
:101A600017008D68AF43FBD1C021221D89011143AE
:101A700021222660A0600A602268002AFCDAE36066
:101A800008230B60F8BD3F2221680A40B242D8D13A
:101A9000A2681205120D8242D3D1EE21E268C9027A
:101AA0000A409A42CDD1EDE70040FDBF00E0004082
:101AB00000F0004000C000408023024A9B00034326
:101AC000D362704700800540AA23064A1B011360B9
:101AD0002F230549D360054B19605368002BFCDAAE
:101AE0007047C0460040024000B0FA00006002406B
:101AF00010B5002800D110BD00F034FCFBE7C04653
:101B000010B5094A0300146884B0002C08D00122E3
:101B100000910648524203A9A047012004B010BD1D
:101B200000F072FC0020F9E7442A0020B1180020E0
:101B300001480421014B184760270020211900208B
:101B4000142310B50100188804331B88984710BD72
:101B5000162310B50100188802331B88984710BD62
:101B6000F0B5C64600B5002916D01423040001259F
:101B700098461827890046184346216818883B88EC
:101B8000984701C4431E984140420540A642F3D104
:101B9000280004BC9046F0BD0125F9E7114A936F77
:101BA0009B0813D210665166002905D0FFE7FFE7B6
:101BB000FFE7516F106F704704B5002801D0002077
:101BC000C04300F0D7FC002104BDC046F0B5146E40
:101BD000556E576F166FFFF7E5FF1466556657672A
:101BE0001667F0BD000000D094464E4A926F9208EE
:101BF000624601D230E0C046F0B54A4EB56F6D087E
:101C0000FCD3346E756E776F366F00F025F894460E
:101C1000444A14665566576716676246F0BDC0466B
:101C20009446404A926F9208624601D258E0C046FC
:101C3000F0B53C4EB56F6D08FCD3346E756E776FA2
:101C4000366F00F04DF89446364A1466556657676D
:101C500016676246F0BDC046002B24DB11D0002978
:101C60003EDA00B5C943404200D1013100F038F8F6
:101C7000C943404200D10131DB43524200D101331C
:101C800000BD002AEBD1002801D1002905D0002099
:101C9000C90FC90701D1C043410800B500F06AFC73
:101CA0000022002300BD00B500290ADBDB435242BD
:101CB00000D1013300F014F8C943404200D1013192
:101CC00000BDC943404200D10131DB43524200D143
:101CD000013300F005F8DB43524200D1013300BD6F
:101CE000002923D1002B18D1002A0CD0BC460D4F5F
:101CF00038667A6600210023FFE7FFE7FFE77A6F87
:101D0000386F67467047002801D00748010000B5CA
:101D100000F030FC0022002300BD02000B00002078
:101D200000217047000000D0FFFFFFFF002B00D014
:101D3000BFE0130C28D1002AE7D080B4114F3966D8
:101D40007A66FFE7FFE730B4040C7B6F396F1B0442
:101D500023433B667A66FFE7FFE7FFE7C04684B2AE
:101D60007B6F3D6F1B0423433B667A66FFE7FFE70B
:101D7000C04600232C042D0C7A6F386F001969417E
:101D8000B0BC7047000000D0F0B594460025140E9A
:101D900001D112020835140F01D112010435940F3C
:101DA00001D192000235D40F01D152000135D40B7C
:101DB0000134254F7C66254C3C660E0C93B2FFE740
:101DC000FFE7FFE73C6F6643360C7703BE4673437D
:101DD000DF0B5B04C01AB941130C7343DB18C91A3B
:101DE000CE086643360CB64493B273431F0F1B01F3
:101DF000C01AB941130C73431F0B1B05C01AB9411C
:101E0000860D8F023E436643360C092D24DB520AB1
:101E10007243801A7703460A6643360C16235B1B0F
:101E2000DE40DF40BF1964466643821B70460435BE
:101E300006330100D940A840C01900D30131A242A5
:101E400006D20023F0BD0000000000D0FFFFFFFF1E
:101E5000121B0130F3D3F1E709277F1BFE406446D4
:101E6000A2B27243801A00D20139220C7243130CC1
:101E70001204821A99410B00704604351337010091
:101E8000F940A840801900D30131002B02D1A242B1
:101E90000AD2F0BD013000D30131121BFAD2013B4E
:101EA000F8D1A24200D2F0BD013000D30131121BA3
:101EB000F7E7F0B51C0C00D080E00CB400251C0A3C
:101EC00004D11B02160E3343120208351C0B04D139
:101ED0001B01160F3343120104359C0B04D19B00E8
:101EE000960F334392000235DC0B02D192185B410E
:101EF00001351C00971864410134464F7C66464CFE
:101F00003C660E0CFFE7FFE7FFE7C0463C6F664309
:101F1000360C7703BE4697B27743C01B00D2013917
:101F2000C01B00D201399FB27743C91BC91B170CD4
:101F300077437E04FF0B801BB941CE086643360C05
:101F40000C2D33DBB644120B1F053A431B0B97B223
:101F50007743C01B00D201399FB27743C91B170CCE
:101F600077433E043F0C801BB941860D8F023E43F0
:101F7000664329277F1BFE400C3D7746AF40BF19C3
:101F800030BCA2B2ABB272437343801A9941220CA7
:101F90007243130C1204801A994102000B0001379E
:101FA000001BA941F9D2781E0021F0BD0C277F1B30
:101FB000FE4077467F0BAF40FF19E0E700245D1C31
:101FC00007D0144F7D663966FFE7FFE7FFE7FFE7BD
:101FD0003C6F95B29EB265436643401BB141150C00
:101FE0001E0C6543664336042F0C3E432D04401BF4
:101FF000B141994204D202000B0020000021F0BD43
:1020000001D19042F7D3801A994101349942F2D319
:10201000F6E70000000000D0FFFFFFFF132370B5BC
:102020001D78012D15D010DD2748FFF791FD274CB5
:1020300001008022200000F0BDF8022D06D02448C7
:10204000FFF77EFD234B186070BD204C224AA2642E
:10205000F5E72E001D4C204AA3085B421E401D429E
:102060002FD0330022602020B1006118801B0A604D
:102070004A608A60CA600A614A618A61CA610A620A
:102080004A628A62CA620A634A638A63CA630A64EA
:102090004A648A64CA640A654A658A65CA650A66CA
:1020A0004A668A66CA660A674A674008102803D1EA
:1020B0008A67CA67A264C2E71E339B00E250A2642B
:1020C000BDE70023CFE7C046534400007C3A002020
:1020D0004C330000603A00209D1E002007B560468A
:1020E00001880A0A0230DF2AFAD1C9B2820804D371
:1020F000028840880004104300E00068014A505004
:10210000039007BD7C3A0020132310B512481C78B9
:10211000FFF71EFD0100012C0AD003DD80220F48CD
:1021200000F048F80E48FFF70BFD0E4B186010BD8D
:102130000A4C5422200000F03DF80B4B6365A36568
:10214000E36523666366A366E36623676367A36745
:10215000E3672362E361E5E7534600007C3B002030
:102160004C330000603A00202D1F002007B5604668
:1021700001880A0A0230DF2AFAD1C9B2820804D3E0
:10218000028840880004104300E00068014A505073
:10219000039007BD7C3B002001480421014B1847F8
:1021A0007027002021190020014B1B6818470000F0
:1021B00070270020014B5B68184700007027002043
:1021C000030010B508001B681100984710BDC046F9
:1021D000F8B54746CE4680B5437C07000D00160093
:1021E000002B37D000240020002A1EDD4B1E98460D
:1021F0001B4B9946002C2BD043461B5D0D3B5A428E
:102200005341DBB22A5D0A2A13D00134A642F1DC25
:10221000864203DD311A3B6828189847AD19013D05
:102220002B780D3B5A4253413B740CBC9046994667
:10223000F8BD002BE9D1A04203DA211A3B68281827
:102240009847484602213B68013498472000DDE763
:102250003B7CD7E70368110028009847E5E7C046B4
:10226000E4260020F0B557464E464546DE461C00A3
:10227000D023E0B51B061F68354B83B006000D0068
:10228000180001A991469A4600F0DEF98046002820
:1022900008D1019B7FB29F4204D0504600F0B0F9B4
:1022A000012398466B1C03D1300000F065F905004E
:1022B000002C2AD1274F284B1C68002C18D04B46E5
:1022C000002B24D1254B994602E0E468002C0FD066
:1022D0002368002BF9D04B461B68002B01D0A3428A
:1022E000F3D120002A003100B847E468002CEFD178
:1022F0004346002B28D1681E8541E8B203B03CBCA0
:1023000090469946A246AB46F0BD154FD3E7134B16
:1023100099460A239B4602E0E468002CE8D0236833
:10232000002BF9D04B461B68002B01D0A342F3D100
:102330002A0031002000B8475A466B4620001A7127
:1023400001A90122B847E7E7504600F0A1F9D2E71A
:1023500088270020911F00203C2A0020402A0020CE
:10236000811F0020F0B54746CE4680B583B06B464E
:10237000DF1CD02338701B061C68204B060001A907
:102380001800984600F060F9051E22D01C4B1C680E
:10239000002C2AD01B4B994602E0E468002C10D098
:1023A0002368002BF9D04B461B68002B01D0A342B9
:1023B000F3D1200001223900FFF70AFFE468002C66
:1023C000EED1002D11D1300003B00CBC90469946DF
:1023D000F0BD019B64B29C420BD0404600F010F966
:1023E000074B01251C68002CD4D1404600F050F961
:1023F000E9E7034B1C68002CCCD1E4E788270020D8
:102400003C2A0020402A002070B5040000F0B4F8F7
:1024100000230100050001222000FFF723FF084BE5
:102420001C68002C06D06368002B05D09847E46830
:10243000002CF8D1280070BDE468002CF3D1F9E736
:102440003C2A002010B5024800F004F810BDC04638
:10245000582A002030B5002589B004000922002147
:1024600001A80095FFF7A0FE0922002105A8049508
:10247000FFF79AFE4B236A466846137004A90D22A3
:1024800000F056F91521082220006944FFF792FE5A
:1024900009B030BD03BDC04610B50400FEF70CFB0B
:1024A000A04710BDF0B5040087B00F200D00170045
:1024B000FEF77EF9002106000F20FEF767F90023E2
:1024C00000220092019301230293D02304950594E6
:1024D000002500200121022403971B06002D14D0A3
:1024E0001A6D1442FCD05D6540BF1A6D114203D1D4
:1024F00020BF1A6D1142FBD09A6DAA420AD000206B
:102500006D468200AD58E9E79A6D1A6D1142FBD114
:1025100040BFE5E701300528F2D931000F20FEF772
:1025200035F907B0F0BDC0460B4B0C4A10B59342CD
:1025300001D201235B421900094A985004329B5092
:10254000084A094B0948CA50094B9A68044B9C46F3
:102550006144FFF7A7FF10BD00080420000004201D
:10256000F407000059220020FC070000552200203B
:1025700000ED00E07047C04610B5830727D0037810
:10258000002B26D00300032102E01A78002A1CD079
:1025900001330B42F9D119680F4A104C8A188A434B
:1025A00022420FD1043319680B4A8A188A43224207
:1025B00008D104331968084A8A188A432242F1D0A4
:1025C00000E001331A78002AFBD1181A10BD03006D
:1025D000E1E70020FAE7C046FFFEFEFE8080808033
:1025E000F8B5C0460000000001B40248844601BCB2
:0825F000604700BF73020010F8
:1025F800D02330B500251B0600245D5706E003688C
:10260800BFF35F8F1C6081F3108820BF0268EFF36F
:10261800108172B61368002BFCD0BFF35F8F03796B
:102628007F2BECD905710368BFF35F8F00221A6016
:1026380081F3108830BDC046030010B50068EFF381
:10264800108472B60268002AFCD0BFF35F8F0422A0
:102658009A56002A0BDB00290FD000200A601B685D
:10266800BFF35F8F00221A6084F3108810BDD02258
:102678001206126801201A71F1E70020EFE7C04640
:102688000268EFF3108172B61368002BFCD0BFF319
:102698005F8FFF2303710368BFF35F8F00221A6007
:1026A80081F3108840BF7047084810B50378002BA5
:1026B8000AD180230649074A5B051C68CC500433BD
:1026C8009342FAD10123037010BDC046783A002026
:1026D800D42800100001001010B5024B01339847B0
:1026E80010BDC046D4280020054B1A6880239B00E3
:1026F8005340C02292001340024A13607047C046FC
:102708000C8001400C900140034B1A68C0239B00C9
:102718009343024A136070470C8001400C900140BB
:102728001423F0B5D6464F4646469A468146188841
:102738000433C0B598460E001B88274914009847F3
:10274800534607001888434624491B889847534630
:1027580005001888434622491B8898478046FFF79A
:10276800A3FFB847A847FFF7BFFF002C1BD0C02125
:1027780022000827022049053D008B6A1D401842A7
:102788000BD0002C09D0131B0D2B1FD84B461B78E0
:10279800013C0B6601239C46E1442300002D0CD12B
:1027A8001343002BE8D1FFF7AFFFC047FFF794FFB3
:1027B8001CBC90469946A246F0BD002AF1D00B6E8B
:1027C800013A3370130001362343EAE7002DD3D0D2
:1027D800002AD1D0F3E7C04649460000455800001A
:1027E8004643000053797374656D20636C6F636BA7
:1027F800206F66202575206B487A2063616E6E6FA6
:10280800742062652065786163746C7920616368FF
:102818006965766564000000080000000900000092
:102828000A0000000B0000000C0000000D00000072
:102838000E0000000F000000100000001100000052
:102848001200000013000000140000001500000032
:10285800486172647761726520616C61726D2025D0
:102868006420616C726561647920636C61696D656F
:10287800640000000A2A2A2A2050414E4943202A8F
:102888002A2A0A000A0000004861726420617373F2
:102898006572740052656C6561736500626F6F7470
:1028A800325F77323571303830000000302E310019
:1028B800312E342E300000007069636F0000000074
:1028C800766964656F5F72616D5F7265706C616374
:1028D800656D656E740000004D61722031382032DC
:1028E8003032330006005250BBFF3CB68826002029
:1028F800060052503ABCA9117C260020060052500E
:10290800E182887F6C26002006005250D3F0754281
:10291800642600200D0A00001000000000000000DE
:10292800000001000000000000000000000002009C
:10293800000000000000000000000300000000008C
:10294800000000000000FF000000000000B548681B
:1029580001318E460047704609380149884700BD55
:10296800C10700204C27002000000000A8270020F5
:10297800FC29002000000000000000000C2A0020B4
:10298800000000000000000010000000000000002F
:10299800503300004C330000543300005233000021
:1029A8004D5300004D4300005334000043340000F1
:1029B800000000000000000000000000000000000F
:1029C800591F0020F1180020DD1D0020C91E00201D
:0829D800390100200522002056
:04000005100001E9FD
:00000001FF
